:1000000019C028C027C026C025C024C023C022C0D4
:1000100021C020C01FC01EC01DC01CC01BC01AC0F4
:1000200019C018C017C016C015C014C013C012C024
:1000300011C010C011241FBECFEFCDBFDFE3DEBF64
:100040002EE3A0E0BEE301C01D92A530B207E1F7A8
:1000500043D09FC2D5CF9DD008959091043E91305A
:1000600049F018F0923069F008954FD081E0809304
:10007000043E089550D0882371F182E08093043EBD
:1000800008954DD08093023E9093033EBC0180E0E2
:1000900090E030D120E030E44CE955E4B9D120E0E3
:1000A00030EC4FE754E485D0F6D0DB0120E83AE1AC
:1000B00046E050E036D220E43DE043E050E015D287
:1000C0002093003E3093013EE0E0F6E083858160BE
:1000D00083871092043E0895BEDF78941092043E08
:1000E0001092023E1092033E1092003E1092013E8A
:1000F00084E0B3DFFDCFE0E0F6E0118280E18283AF
:10010000168281E0808380E00895E0E0F6E0868357
:1001100081E08087089580910B0681700895809119
:10012000100690911106089582E08093890080E086
:10013000089543E068ED81E690E033D080E00895D3
:1001400080E00895E0E1F4E0808188608193E83107
:1001500084E0F807C9F7E0E3F4E0808188608193E8
:10016000E83384E0F807C9F7E0E5F4E080818860CF
:100170008193E83584E0F807C9F70895E4E1F4E0F5
:100180008081887F846080838081877F8083B3DFE4
:100190000895D8DFCEDF0BD0F1DFD2DF06D0C4DF89
:1001A0000895FC0164BF4083089580E0089580E0D5
:1001B00008950E94ED000C94CE010E94C70158F0F2
:1001C0000E94C00140F029F45F3F29F00C94B70170
:1001D00051110C9402020C94BD010E94DF0168F3DE
:1001E0009923B1F3552391F3951B550BBB27AA27F0
:1001F00062177307840738F09F5F5F4F220F331F2A
:10020000441FAA1FA9F335D00E2E3AF0E0E832D0F1
:1002100091505040E695001CCAF72BD0FE2F29D0F4
:10022000660F771F881FBB1F261737074807AB07C6
:10023000B0E809F0BB0B802DBF01FF2793585F4F3B
:100240003AF09E3F510578F00C94B7010C940202ED
:100250005F3FE4F3983ED4F3869577956795B7951D
:10026000F7959F5FC9F7880F911D9695879597F928
:100270000895E1E0660F771F881FBB1F62177307A1
:100280008407BA0720F0621B730B840BBA0BEE1FB6
:1002900088F7E09508950E94E70188F09F5798F04D
:1002A000B92F9927B751B0F0E1F0660F771F881F7B
:1002B000991F1AF0BA95C9F714C0B13091F00E9495
:1002C0000102B1E008950C940102672F782F88276E
:1002D000B85F39F0B93FCCF3869577956795B395BC
:1002E000D9F73EF490958095709561957F4F8F4F2B
:1002F0009F4F0895E89409C097FB3EF49095809530
:10030000709561957F4F8F4F9F4F9923A9F0F92FDB
:1003100096E9BB279395F695879577956795B79559
:10032000F111F8CFFAF4BB0F11F460FF1BC06F5F3F
:100330007F4F8F4F9F4F16C0882311F096E911C051
:10034000772321F09EE8872F762F05C0662371F072
:1003500096E8862F70E060E02AF09A95660F771F86
:10036000881FDAF7880F9695879597F9089597F97A
:100370009F6780E870E060E008959FEF80EC08954B
:1003800000240A9416161706180609060895002474
:100390000A9412161306140605060895092E0394EE
:1003A000000C11F4882352F0BB0F40F4BF2B11F462
:1003B00060FF04C06F5F7F4F8F4F9F4F089557FDC1
:1003C0009058440F551F59F05F3F71F04795880FC3
:1003D00097FB991F61F09F3F79F08795089512165A
:1003E00013061406551FF2CF4695F1DF08C0161606
:1003F00017061806991FF1CF8695710561050894B7
:100400000895E894BB2766277727CB0197F90895CD
:100410000E941B020C94CE010E94C00138F00E9481
:10042000C70120F0952311F00C94B7010C94BD0185
:1004300011240C9402020E94DF0170F3959FC1F316
:10044000950F50E0551F629FF001729FBB27F00D82
:10045000B11D639FAA27F00DB11DAA1F649F6627D7
:10046000B00DA11D661F829F2227B00DA11D621F26
:10047000739FB00DA11D621F839FA00D611D221FE0
:10048000749F3327A00D611D231F849F600D211DC4
:10049000822F762F6A2F11249F5750409AF0F1F047
:1004A00088234AF0EE0FFF1FBB1F661F771F881FB0
:1004B00091505040A9F79E3F510580F00C94B70130
:1004C0000C9402025F3FE4F3983ED4F3869577954F
:1004D0006795B795F795E7959F5FC1F7FE2B880F56
:1004E000911D9695879597F90895052E97FB16F41B
:1004F00000940FD057FD05D01ED007FC02D046F463
:1005000008C050954095309521953F4F4F4F5F4F14
:10051000089590958095709561957F4F8F4F9F4F6F
:1005200008952BD0A59F900DB49F900DA49F800D92
:10053000911D11240895A1E21A2EAA1BBB1BFD01D7
:100540000DC0AA1FBB1FEE1FFF1FA217B307E407B2
:10055000F50720F0A21BB30BE40BF50B661F771F0A
:10056000881F991F1A9469F76095709580959095EA
:100570009B01AC01BD01CF010895A29FB001B39FC3
:10058000C001A39F01D0B29F700D811D1124911D48
:060590000895F894FFCF6E
:00000001FF
